:020000040800F2
:1000000000A0002075070008FD060008FF06000894
:1000100001070008030700080507000800000000AA
:10002000000000000000000000000000D11F0008D8
:10003000070700080000000071200008D520000814
:10004000C5070008C5070008C5070008C507000860
:10005000C5070008C5070008C5070008C507000850
:10006000C5070008C5070008C5070008C507000840
:10007000C5070008C5070008C5070008C507000830
:10008000C5070008C5070008C5070008C507000820
:10009000C5070008C5070008C5070008C507000810
:1000A000C507000809070008C5070008C5070008BC
:1000B000C5070008C5070008C5070008C5070008F0
:1000C000C5070008C5070008C5070008C5070008E0
:1000D000C5070008C5070008C5070008C5070008D0
:1000E000C5070008C5070008C5070008C5070008C0
:1000F000C5070008C5070008C5070008C5070008B0
:10010000000000000000000000000000C50700081B
:10011000C5070008C5070008C5070008C50700088F
:10012000C5070008C5070008C5070008C50700087F
:10013000C5070008C5070008000000000000000017
:10014000C5070008C5070008C50700080000000033
:10015000000000000000000000000000000000009F
:100160000000000000000000C5070008C5070008E7
:10017000C5070008000000000000000000000000AB
:0801800000000000C5070008A3
:1001900010B5054C237833B9044B13B10448AFF3C1
:1001A00000800123237010BD5808002000000000CB
:1001B0003C39000808B5034B1BB103490348AFF3B2
:1001C000008008BD000000005C0800203C390008E9
:1001D000844641EA000313F003036DD1403A41D352
:1001E00051F8043B40F8043B51F8043B40F8043B11
:1001F00051F8043B40F8043B51F8043B40F8043B01
:1002000051F8043B40F8043B51F8043B40F8043BF0
:1002100051F8043B40F8043B51F8043B40F8043BE0
:1002200051F8043B40F8043B51F8043B40F8043BD0
:1002300051F8043B40F8043B51F8043B40F8043BC0
:1002400051F8043B40F8043B51F8043B40F8043BB0
:1002500051F8043B40F8043B51F8043B40F8043BA0
:10026000403ABDD2303211D351F8043B40F8043B40
:1002700051F8043B40F8043B51F8043B40F8043B80
:1002800051F8043B40F8043B103AEDD20C3205D350
:1002900051F8043B40F8043B043AF9D2043208D048
:1002A000D2071CBF11F8013B00F8013B01D30B88BA
:1002B00003806046704700BF082A13D38B078DD098
:1002C00010F003038AD0C3F10403D21ADB071CBF6A
:1002D00011F8013B00F8013B80D331F8023B20F8D4
:1002E000023B7BE7043AD9D3013A11F8013B00F80D
:1002F000013BF9D20B7803704B7843708B78837095
:1003000060467047034B0360034B0B608023136010
:10031000704700BF780A00207408002070B588B0CC
:100320000024039404940594069407941B4B5A6983
:1003300042F400325A615A6902F400320092009A83
:100340005A6942F400225A615A6902F40022019269
:10035000019A5A6942F400125A615B6903F400136E
:100360000293029B0E4D22464FF47F41284600F037
:1003700092FB012603960494059403A94FF0904044
:1003800000F09EFA4FF47F4303930496059406947D
:1003900003A9284600F094FA08B070BD001002408E
:1003A0000010004870B582B000263446354616E08D
:1003B00001350A2D2DDD16B900240B250CE0002493
:1003C00001942346224601A91348006802F063F90C
:1003D00026460B2500E00025012001F057FD0121F4
:1003E0004FF0904000F050FB0028E1D00134092C80
:1003F000F1DD5EB90126019600231A4601A90648DF
:10040000006802F048F90B240025E5E70B240025DD
:10041000E2E70024E0E700BF800F0020F0B587B0DE
:100420001B4B0FCB06AC04E90F00002427460AE063
:1004300087F0010710E00134634204F0070403F081
:10044000070358BF5C42012201A9124B186802F051
:10045000E6F9019B012BEBD006AB03EB440333F829
:10046000106C0D4D3146284600F01AFB4FF4967083
:1004700001F00CFD3146284600F012FB002FDAD1C6
:10048000002FE0D1013CB4F1FF3FDCD10724DAE7D3
:1004900054390008800F00200010004808B5026899
:1004A000034B9A4200D008BD00F0A0F9FBE700BF63
:1004B000002C014072B6FEE708B50B480B4B0360F9
:1004C0004FF4E133436000238360C36003610C2277
:1004D00042618361C3610362436201F066FC00B95B
:1004E00008BDFFF7E7FF00BFFC0E00200038014009
:1004F00000B59FB02822002114A802F07DFF002142
:100500000F9110911191129113913C22684602F0C3
:1005100073FF02231493012318931023199314A833
:1005200000F0C8FAA8B90F230F9300211091119180
:10053000129113910FA800F00FFE60B901230093F0
:1005400000230293684600F02BFF30B91FB05DF81E
:1005500004FBFFF7AFFFFFF7ADFFFFF7ABFF0000B6
:1005600000B58FB000F030F9FFF7C2FFFFF7D6FEFD
:10057000FFF7A2FF00220421032002F065F8144BCC
:100580001860144C0DF11C0C04F1100EBEE80F00A5
:10059000ACE80F009EE807008CE80700002107A8E0
:1005A00001F03FFC0C4D2860EE4604F12C0CBCE839
:1005B0000F00AEE80F009CE807008EE8070000215E
:1005C000684601F02EFC286001F026FCFEE700BF23
:1005D000800F002054390008F80E002000B583B0C9
:1005E0000D4B9A6942F001029A619A6902F0010288
:1005F0000092009ADA6942F08052DA61DB6903F016
:1006000080530193019B00220F216FF0010000F045
:1006100011F903B05DF804FB0010024000B589B089
:100620000023039304930593069307930268134BE7
:100630009A4202D009B05DF804FB03F558439A6969
:1006400042F480429A619A6902F480420192019ACE
:100650005A6942F400225A615B6903F40023029351
:10066000029B30230393022304930323069307235F
:10067000079303A9024800F023F9DBE700380140A3
:100680000008004800B589B001460022192000F09A
:10069000D1F8192000F006F9144B9A6942F400626F
:1006A0009A619B6903F400630193019B02A903A86B
:1006B00000F058FE00F040FE0D4BA3FB00239B0C06
:1006C000013B0C480C4A026040F2E732C2604360D2
:1006D00000230361836001F005F918B1012009B01E
:1006E0005DF804FB034800F08DFFF8E700100240BE
:1006F00083DE1B43840F0020002C0140FEE7FEE751
:10070000FEE7FEE7FEE7704708B5024800F0C0FFCD
:1007100008BD00BF840F002010B503460C4A0D49E8
:100720000D48006840B10C4800680344521A9342D7
:1007300006D8094A136010BD0748084C0460F2E768
:1007400002F030FE0C2303604FF0FF30F3E700BFF0
:1007500000A0002000040000D00F002060890020CD
:10076000034AD2F8883043F47003C2F888307047E7
:1007700000ED00E0DFF834D00D480E490E4A0023AA
:1007800002E0D458C4500433C4188C42F9D30B4A45
:100790000B4C002301E013600432A242FBD3FFF7AD
:1007A000DFFF02F005FEFFF7DBFEFEE700A0002002
:1007B0000000002054080020003A000858080020DB
:1007C0005C890020FEE7000008B5074A136843F083
:1007D00010031360032000F01BF80F20FFF752FFF7
:1007E000FFF7FCFE002008BD00200240034A11680C
:1007F000034B1B780B441360704700BFD40F0020DD
:1008000004000020014B1868704700BFD40F00207F
:10081000074AD36823F4E0631B041B0C000200F4B6
:10082000E060034343F0BF6343F40033D360704799
:1008300000ED00E000B5194BDB68C3F30223C3F100
:10084000070CBCF1040F28BF4FF0040C03F1040E99
:10085000BEF1060F18D9033B4FF0FF3E0EFA0CFC19
:1008600021EA0C0199400EFA03F322EA030319432B
:1008700000280BDB0901C9B200F1604000F56140BE
:1008800080F800135DF804FB0023E5E700F00F009B
:100890000901C9B2024B1954F4E700BF00ED00E0B2
:1008A00014ED00E0002807DB00F01F0240090123DF
:1008B0009340024A42F82030704700BF00E100E058
:1008C000F0B583B0002362E085685E000324B44085
:1008D00025EA0405CC68B4402C438460446824EACB
:1008E0000C0C4C68C4F300149C4044EA0C044460B3
:1008F0005EE0DD08083550F8256003F007044FEA94
:10090000840C0F2404FA0CF426EA040E0C6904FA91
:100910000CF444EA0E0440F8254060E0042400E0B2
:10092000002404FA0EF42C430CF1020C524D45F84D
:100930002C40524C2568D44325EA02064F6817F430
:10094000803F01D042EA05064C4D2E606D6804EAF6
:1009500005064F6817F4003F01D042EA0506474DEF
:100960006E60AD6804EA05064F6817F4801F01D079
:1009700042EA0506414DAE60ED682C404E6816F423
:10098000001F01D042EA05043C4AD46001330A68E2
:1009900032FA03F46ED04FF0010C0CFA03FC1CEA9F
:1009A0000202F3D04C6804F00304013C012C8BD903
:1009B0004C6804F00304032C0CD0C4685D004FF0B5
:1009C000030C0CFA05FC24EA0C0C8C68AC4044EADD
:1009D0000C04C4604C6804F00304022C89D0046841
:1009E0004FEA430E4FF0030C0CFA0EFC24EA0C0CF9
:1009F0004C6804F0030404FA0EF444EA0C040460A6
:100A00004C6814F4403FC1D01D4CA56945F0010568
:100A1000A561A46904F001040194019C4FEA930CC0
:100A20000CF10205144C54F8255003F003044FEA6E
:100A3000840E0F2404FA0EF425EA0405B0F1904F59
:100A40003FF46EAF0F4CA0420ED004F58064A0427C
:100A50000CD004F58064A0420AD004F58064A04262
:100A60003FF45CAF05245CE701245AE7022458E711
:100A7000032456E703B0F0BD00000140000401402C
:100A800000100240000400480369194201D001200F
:100A90007047002070470AB18161704781627047DA
:100AA000436901EA030221EA030141EA024181614B
:100AB00070470000002800F0018370B582B0044642
:100AC000036813F0010F3BD0B54B5B6803F00C03D8
:100AD000042B1ED0B24B5B6803F00C03082B13D021
:100AE0006368B3F5803F68D0002B40F0928003F13B
:100AF000804303F504331A6822F480321A601A68BE
:100B000022F480221A605DE0A54B5B6813F4803FFD
:100B1000E6D04FF4003393FAA3F3A14B19684FF4D6
:100B2000003393FAA3F3B3FA83F303F01F03012214
:100B300002FA03F30B4203D06368002B00F0C0827B
:100B4000236813F0020F00F0C580954B5B6813F02B
:100B50000C0F00F09C80924B5B6803F00C03082B99
:100B600000F08F802369002B00F0F280012292FABE
:100B7000A2F3B3FA83F303F1845303F584139B00C8
:100B80001A60FFF73FFE0546022393FAA3F3844B56
:100B90001968022393FAA3F3B3FA83F303F01F0354
:100BA000012202FA03F30B4240F0C380FFF72AFE52
:100BB000401B0228E8D903208BE2794A136843F4EA
:100BC00080331360764AD36A23F00F03A1680B4386
:100BD000D3626368002B36D0FFF714FE05464FF44E
:100BE000003393FAA3F36E4B19684FF4003393FA72
:100BF000A3F3B3FA83F303F01F03012202FA03F312
:100C00000B429DD1FFF7FEFD401B6428E7D903206E
:100C10005FE2B3F5A02F09D0614B1A6822F480324D
:100C20001A601A6822F480221A60CBE703F180432D
:100C3000A3F53C331A6842F480221A601A6842F421
:100C400080321A60BEE7FFF7DDFD05464FF4003342
:100C500093FAA3F3524B19684FF4003393FAA3F3BA
:100C6000B3FA83F303F01F03012202FA03F30B42EA
:100C70003FF466AFFFF7C6FD401B6428E6D90320AA
:100C800027E2474B5B6813F4803F7FF46BAF02238E
:100C900093FAA3F3424B1968022393FAA3F3B3FA2E
:100CA00083F303F01F03012202FA03F30B4203D084
:100CB0002369934240F006823948036823F0F80321
:100CC0006169F82292FAA2F2B2FA82F201FA02F211
:100CD00013430360236813F0080F00F08D80A369AD
:100CE000002B61D0012191FAA1F2B2FA82F22D4BD0
:100CF00013449B001960FFF785FD0546022393FA14
:100D0000A3F293FAA3F293FAA3F2254A516A93FA53
:100D1000A3F3B3FA83F303F01F03012202FA03F3F0
:100D20000B4269D1FFF76EFD401B0228E6D9032074
:100D3000CFE11B48036823F0F8036169F82292FAB7
:100D4000A2F2B2FA82F201FA02F213430360C1E79F
:100D5000012393FAA3F3B3FA83F303F1845303F566
:100D600084139B0000221A60FFF74CFD0546022306
:100D700093FAA3F30A4B1968022393FAA3F3B3FA85
:100D800083F303F01F03012202FA03F30B42A1D005
:100D9000FFF738FD401B0228E9D9032099E100BF85
:100DA0000010024020819010012292FAA2F2B2FAC1
:100DB00082F2B74B13449B0000221A60FFF722FD1A
:100DC0000546022393FAA3F293FAA3F293FAA3F24D
:100DD000B04A516A93FAA3F3B3FA83F303F01F0303
:100DE000012202FA03F30B4206D0FFF70BFD401B72
:100DF0000228E6D903206CE1236813F0040F00F009
:100E0000A980A44BDB6913F0805F20D1A14BDA6984
:100E100042F08052DA61DB6903F080530193019B59
:100E200001259D4B1B6813F4807F12D0E368012BD2
:100E300023D073BB03F1804303F504331A6A22F015
:100E400001021A621A6A22F004021A621AE00025EC
:100E5000E7E7914A136843F480731360FFF7D2FC0D
:100E600006468D4B1B6813F4807FDFD1FFF7CAFC69
:100E7000801B6428F5D903202BE1864A136A43F0CE
:100E800001031362E368002B3CD0FFF7BBFC06466E
:100E90002BE0052B09D07F4B1A6A22F001021A625F
:100EA0001A6A22F004021A62ECE77A4B1A6A42F0DC
:100EB00004021A621A6A42F001021A62E2E7754BF2
:100EC000196A022393FAA3F3B3FA83F303F01F031F
:100ED000012202FA03F319423BD1FFF793FC801B76
:100EE00041F28833984200F2EF80022393FAA3F292
:100EF00093FAA3F3002BE2D1022393FAA3F3654BF9
:100F0000596ADEE7FFF77EFC064615E0614B196A79
:100F1000022393FAA3F3B3FA83F303F01F0301222E
:100F200002FA03F3194214D0FFF76CFC801B41F264
:100F30008833984200F2CA80022393FAA3F293FA0C
:100F4000A3F3002BE2D1022393FAA3F3514B596A86
:100F5000DEE7B5BBE369002B00F0BA804D4A52686A
:100F600002F00C02082A00F09980022B2FD04FF0DB
:100F7000807393FAA3F3B3FA83F303F1845303F575
:100F800084139B0000221A60FFF73CFC04464FF0DC
:100F9000007393FAA3F33F4B19684FF0007393FA71
:100FA000A3F3B3FA83F303F01F03012202FA03F35E
:100FB00019426BD0FFF726FC001B0228E7D903205B
:100FC00087E0344AD36923F08053D361C2E74FF0FE
:100FD000807393FAA3F3B3FA83F303F1845303F515
:100FE00084139B0000221A60FFF70CFC05464FF0AB
:100FF000007393FAA3F3274B19684FF0007393FA29
:10100000A3F3B3FA83F303F01F03012202FA03F3FD
:10101000194206D0FFF7F6FB401B0228E7D9032050
:1010200057E01C494B6823F47413626A206A024338
:1010300013434B604FF0807393FAA3F3B3FA83F337
:1010400003F1845303F584139B0001221A60FFF718
:10105000D9FB04464FF0007393FAA3F30D4B1968C4
:101060004FF0007393FAA3F3B3FA83F303F01F0373
:10107000012202FA03F3194206D1FFF7C3FB001B5A
:101080000228E7D9032024E0002022E0002020E00D
:10109000208190100010024000700040012B1AD0F7
:1010A000104B5B6803F48031226A914215D103F43E
:1010B0007013626A934212D100200AE00120704747
:1010C000012006E0012004E0032002E0032000E00C
:1010D000002002B070BD0120FBE70120F9E70120EC
:1010E000F7E700BF00100240164B5B6803F00C02EC
:1010F000082A01D01448704703F470114FF470129D
:1011000092FAA2F2B2FA82F221FA02F20F49885C54
:101110000C4AD26A02F00F020F2191FAA1F1B1FA42
:1011200081F1CA400A498A5C13F4803F05D0064B1E
:10113000B3FBF2F303FB00F07047064B03FB00F038
:10114000704700BF0010024000127A00C839000842
:10115000D839000800093D00002800F0BE8070B5B5
:101160000D460446614B1B6803F007038B420BD20C
:101170005E4A136823F007030B431360136803F000
:1011800007038B4240F0AB80236813F0020F06D0B8
:10119000574A536823F0F003A1680B435360236858
:1011A00013F0010F5AD06368012B2DD0022B40D0D1
:1011B000022292FAA2F24E4A1068022292FAA2F297
:1011C000B2FA82F202F01F02012101FA02F2104289
:1011D00000F0878046494A6822F0030213434B60BF
:1011E000FFF710FB0646424B5B6803F00C03626896
:1011F000B3EB820F32D0FFF705FB801B41F288333F
:101200009842F0D9032067E04FF4003292FAA2F23C
:10121000374A10684FF4003292FAA2F2B2FA82F220
:1012200002F01F02012101FA02F20242D2D1012092
:1012300052E04FF0007292FAA2F22D4A10684FF07D
:10124000007292FAA2F2B2FA82F202F01F020121B7
:1012500001FA02F21042BDD101203DE0234B1B6890
:1012600003F00703AB420AD9204A136823F00703AF
:101270002B431360136803F00703AB4233D1236899
:1012800013F0040F06D01A4A536823F4E063E168B0
:101290000B435360236813F0080F07D0144A5368B8
:1012A00023F46053216943EAC1035360FFF71CFF35
:1012B0000F4B5B6803F0F003F02292FAA2F2B2FA4D
:1012C00082F2D3400B4AD35CD8400B4B18600B4BD7
:1012D0001868FFF7D7F9002070BD01207047012082
:1012E000FAE70120F8E70120F6E700BF00200240FE
:1012F00000100240B0390008000000200800002063
:10130000014B1868704700BF0000002008B5FFF7C8
:10131000F7FF074B5B6803F4E0634FF4E06292FA77
:10132000A2F2B2FA82F2D340024AD35CD84008BD9E
:1013300000100240C039000808B5FFF7E1FF074B75
:101340005B6803F460534FF4605292FAA2F2B2FA6F
:1013500082F2D340024AD35CD84008BD001002405C
:10136000C03900080F2303600B4B5A6802F00302D8
:1013700042605A6802F0F00282605A6802F4E06249
:10138000C2605B68DB0803F4E0630361034B1B6826
:1013900003F007030B60704700100240002002407A
:1013A000F0B583B00446036813F4803F48D0914BF6
:1013B000DB6913F0805F40F0D4808E4BDA6942F035
:1013C0008052DA61DB6903F080530193019B0125B0
:1013D000894B1B6813F4807F00F0C580854B1B6A26
:1013E00013F4407322D0626802F440729A421DD016
:1013F0008048016A21F440764FF4803393FAA3F2D7
:10140000B2FA82F27D4F3A4492004FF0010CC2F8DA
:1014100000C093FAA3F3B3FA83F33B449B0000228A
:101420001A60066211F0010F40F0B280714A136A2F
:1014300023F4407361680B431362002D40F0CF80AA
:10144000236813F0010F06D06A4A136B23F00303DD
:10145000A1680B431363236813F0020F06D0654A9B
:10146000136B23F44033E1680B431363236813F0D9
:10147000040F06D05F4A136B23F4402321690B430A
:101480001363236813F0200F06D05A4A136B23F01E
:101490001003E1690B431363236813F4003F06D084
:1014A000544A536823F48003A16B0B4353602368B1
:1014B00013F0400F06D04F4A136B23F02003216A2C
:1014C0000B431363236813F0080F06D0494A136BCC
:1014D00023F4401361690B431363236813F0100F67
:1014E00006D0444A136B23F44003A1690B431363F2
:1014F000236813F4007F06D03E4A536823F40003A8
:10150000E16A0B435360236813F0800F06D0394A19
:10151000D36A23F4F873616A0B43D362236813F42C
:10152000807F06D0334AD36A23F47853A16A0B43F1
:10153000D362236813F4805F06D02E4A136B23F422
:101540008073216B0B431363236813F4005F4DD04A
:10155000284A136B23F40073616B0B431363002061
:1015600045E0002534E7244A136843F48073136090
:10157000FFF748F90646204B1B6813F4807F7FF481
:101580002DAFFFF73FF9801B6428F4D903202EE02C
:10159000FFF738F9064615E0164B196A022393FA4D
:1015A000A3F3B3FA83F303F01F03012202FA03F358
:1015B0000B427FF43BAFFFF725F9801B41F28833E4
:1015C000984211D8022393FAA3F293FAA3F3002BC3
:1015D000E2D1022393FAA3F3064B596ADEE7D369FB
:1015E00023F08053D3612BE7032000E0002003B0F9
:1015F000F0BD00BF0010024000700040008190105C
:101600007047000090F83D30DBB2012B32D102234D
:1016100080F83D300268D36843F00103D36003686B
:10162000174A934218D0B3F1804F15D0A2F59432E7
:10163000934211D002F5806293420DD002F59632AA
:10164000934209D002F54062934205D01A6842F0F5
:1016500001021A600020704799680A4A0A40062A67
:101660000AD0B2F5803F09D01A6842F001021A6030
:10167000002070470120704700207047002070470D
:10168000002C014007000100704770477047704709
:1016900010B5044603681A6912F0020F11D0DA6817
:1016A00012F0020F0DD06FF002021A6101230377CE
:1016B00003689B6913F0030F79D0FFF7E6FF00235F
:1016C000237723681A6912F0040F12D0DA6812F037
:1016D000040F0ED06FF004021A61022323772368EF
:1016E0009B6913F4407F68D02046FFF7CEFF0023AC
:1016F000237723681A6912F0080F12D0DA6812F003
:10170000080F0ED06FF008021A61042323772368B4
:10171000DB6913F0030F57D02046FFF7B6FF002315
:10172000237723681A6912F0100F12D0DA6812F0CA
:10173000100F0ED06FF010021A6108232377236870
:10174000DB6913F4407F46D02046FFF79EFF00235D
:10175000237723681A6912F0010F03D0DA6812F0B8
:10176000010F3FD123681A6912F0800F03D0DA68A5
:1017700012F0800F3DD123681A6912F4807F03D0E4
:10178000DA6812F0800F3BD123681A6912F0400F1B
:1017900003D0DA6812F0400F39D123681A6912F0C9
:1017A000200F03D0DA6812F0200F37D110BDFFF7F9
:1017B0006BFF2046FFF76AFF81E72046FFF764FFD3
:1017C0002046FFF763FF92E72046FFF75DFF2046C4
:1017D000FFF75CFFA3E72046FFF756FF2046FFF721
:1017E00055FFB4E76FF001021A612046FEF756FE7E
:1017F000B8E76FF080021A61204600F0A4F8BAE75B
:101800006FF480721A61204600F09EF8BCE76FF01A
:1018100040021A612046FFF73AFFBEE76FF0200250
:101820001A61204600F08EF8C0E7000003682C4AD9
:1018300090420ED0B0F1804F0BD0A2F5943290427E
:1018400007D002F58062904203D002F596329042B2
:1018500003D123F070034A681343214A90421AD0FF
:10186000B0F1804F17D0A2F59432904213D002F518
:10187000806290420FD002F5963290420BD002F572
:101880004062904207D002F58062904203D002F598
:101890008062904203D123F44073CA68134323F05B
:1018A00080034A69134303608B68C3620B688362D9
:1018B0000B4B98420FD003F5006398420BD003F511
:1018C0004063984207D003F58063984203D003F544
:1018D0008063984201D10B69036301234361704720
:1018E000002C014060B310B5044690F83D3013B3AE
:1018F000022384F83D30214651F8040BFFF796FF90
:10190000012384F8483084F83E3084F83F3084F86E
:10191000403084F8413084F8423084F8433084F811
:10192000443084F8453084F8463084F8473084F8F1
:101930003D30002010BD80F83C30FFF761FED7E756
:1019400001207047704770477047000010B504468B
:1019500083680269134342691343C2691A430168E9
:101960000B6823F4164323F00C0313430B60026847
:10197000536823F44053C1680B4353608269036A80
:101980001A4301688B6823F4306313438B60036848
:101990007B4A93420DD07B4A93421CD07A4A9342B1
:1019A0003AD07A4A93424AD0794A93425AD0102385
:1019B0001FE0784B1B6B03F00303032B09D8DFE810
:1019C00003F002040664012313E0042311E008235A
:1019D0000FE010230DE06F4B1B6B03F44033B3F5A6
:1019E000003F54D013D8002B53D0B3F5803F52D1D1
:1019F0000423E069B0F5004F69D0082B00F2B980EC
:101A0000DFE803F092A890B7ABB7B7B7AE00B3F575
:101A1000403F42D10223ECE75E4B1B6B03F44023B3
:101A2000B3F5002F3BD005D8DBB3B3F5802F3AD107
:101A30000423DEE7B3F5402F37D10223D9E7554B16
:101A40001B6B03F44013B3F5001F30D005D883B3EC
:101A5000B3F5801F2FD10423CBE7B3F5401F2CD162
:101A60000223C6E74B4B1B6B03F44003B3F5000F97
:101A700025D005D82BB3B3F5800F24D10423B8E7C4
:101A8000B3F5400F21D10223B3E70223B1E70823C6
:101A9000AFE70023ADE71023ABE71023A9E7082346
:101AA000A7E70023A5E71023A3E71023A1E7082356
:101AB0009FE700239DE710239BE7102399E7082366
:101AC00097E7002395E7102393E7102391E7082B6E
:101AD00049D8DFE803F0051F254822484848090097
:101AE000FFF714FC002840D06268530803EB400065
:101AF000B0FBF2F080B2A0F110024FF6EF739A4201
:101B000035D820F00F03C0F3420018432368D86093
:101B100000201BE0FFF710FCE4E7FFF7E5FAE1E740
:101B20001D48E1E71C4802E0FFF7F0FB18B36368CB
:101B300000EB5300B0FBF3F080B2A0F110024FF6BF
:101B4000EF739A4219D82368D86000200023636697
:101B5000A36610BDFFF7F0FBE8E7FFF7C5FAE5E77E
:101B60004FF40040E3E70120F0E70020EEE701201A
:101B7000ECE70120EAE70020E8E70120E6E700BF04
:101B8000003801400044004000480040004C004044
:101B9000005000400010024000127A00436A13F027
:101BA000010F06D00268536823F40033816A0B43A7
:101BB0005360436A13F0020F06D00268536823F49F
:101BC0008033C16A0B435360436A13F0040F06D09D
:101BD0000268536823F48023016B0B435360436A0C
:101BE00013F0080F06D00268536823F40043416BDA
:101BF0000B435360436A13F0100F06D002689368DA
:101C000023F48053816B0B439360436A13F0200FDE
:101C100006D00268936823F40053C16B0B439360B2
:101C2000436A13F0400F0AD00268536823F480130C
:101C3000016C0B435360036CB3F5801F0BD0436AF8
:101C400013F0800F06D00268536823F40023816CE0
:101C50000B43536070470268536823F4C003416C20
:101C60000B435360EBE72DE9F84305460F46164654
:101C70009946DDF820802C68E46937EA04030CBF3C
:101C80004FF0010C4FF0000CB44553D1B8F1FF3FB9
:101C9000F1D0FEF7B7FDA0EB090040452DD8B8F113
:101CA000000F2AD02B681A6812F0040FE3D0DA690B
:101CB00012F4006FDFD04FF400621A622A6852E813
:101CC000003F23F4D07342E800310029F6D12A689E
:101CD00002F1080353E8003F23F00103083242E811
:101CE00000310029F3D12023AB67EB67C5F88030C2
:101CF000002385F8743003201DE02A6852E8003F75
:101D000023F4D07342E800310029F6D12A6802F1A9
:101D1000080353E8003F23F00103083242E8003192
:101D20000029F3D12023AB67EB67002385F87430DB
:101D3000032000E00020BDE8F88330B583B00446FE
:101D40000023C0F88030FEF75DFD0546226812686A
:101D500012F0080F0DD123681B6813F0040F16D181
:101D60002023A367E3670020206684F8740003B093
:101D700030BD6FF07E430093034600224FF4001104
:101D80002046FFF770FF0028E5D00320EFE76FF053
:101D90007E4300932B4600224FF480012046FFF73C
:101DA00062FF0028DCD00320E1E768B310B50446E9
:101DB000836F03B32423A3672268136823F001030E
:101DC00013602046FFF7C2FD012813D0636ABBB938
:101DD0002268536823F4904353602268936823F089
:101DE0002A0393602268136843F0010313602046BE
:101DF000FFF7A3FF10BD80F87430FEF70FFCD9E7A2
:101E00002046FFF7CBFEE3E701207047842801D08E
:101E1000033070470020704708B500F0DDFF002058
:101E200008BD2DE9F04387B004460F464569BDB1B2
:101E30008669AEB1D0F80480D0F80090B0F90800FF
:101E4000FFF7E4FF0296019500903B462269494660
:101E5000404600F04FFF0590059807B0BDE8F083BD
:101E600065682668D4F81080B4F90800FFF7CEFF43
:101E700005AB019300903B461FFA88F23146284695
:101E800000F074FF0128E7D00020E6E708B500B9AC
:101E9000012001F0F3F8002008BD00F108034360C1
:101EA0004FF0FF328260C36003610023036070471C
:101EB00000230361704743684B609A688A605160F1
:101EC00099600861036801330360704730B40D689E
:101ED000B5F1FF3F11D000F108031C465B681A689A
:101EE000AA42FAD963684B6099608C6061600861AE
:101EF00003680133036030BC70470469F2E703698B
:101F0000416882688A60416851605A68824206D09E
:101F1000002202611A68013A1A60186870478268E4
:101F20005A60F5E782B0002301930D4B1B68B3F1B3
:101F3000FF3F08D04FF0500383F31188BFF36F8F3A
:101F4000BFF34F8FFEE74FF0500383F31188BFF3C9
:101F50006F8FBFF34F8F019B002BFCD002B07047F7
:101F60000C00002008480068006880F308884FF0E3
:101F7000000080F3148862B661B6BFF34F8FBFF3E1
:101F80006F8F00DF00BF000008ED00E0DFF80C00FD
:101F9000016841F4700101607047000088ED00E0C5
:101FA0004FF0807340F8043C21F0010140F8081C18
:101FB000054B40F80C3C40F8202C6FF0020340F831
:101FC000243C4438704700BF251F00080000000073
:101FD000074B19680868B0E8F04F80F30988BFF331
:101FE0006F8F4FF0000080F311887047AFF30080CF
:101FF000F88700204FF0500383F31188BFF36F8FF1
:10200000BFF34F8F0B4A136801331360012B00D0CD
:1020100070474FF0E023D3F8043D13F0FF0FF7D0E3
:102020004FF0500383F31188BFF36F8FBFF34F8FCF
:10203000FEE700BF0C000020094B1B6843B94FF0BE
:10204000500383F31188BFF36F8FBFF34F8FFEE709
:10205000013B034A13600BB983F31188704700BF3B
:102060000C00002000000000000000000000000044
:10207000EFF30980BFF36F8F154B1A681EF0100F36
:1020800008BF20ED108A20E9F04F10602DE909000B
:102090004FF0500080F31188BFF34F8FBFF36F8F65
:1020A00001F012F84FF0000080F3118809BC1968A4
:1020B0000868B0E8F04F1EF0100F08BFB0EC108AAF
:1020C00080F30988BFF36F8F704700BFAFF30080C4
:1020D000F887002008B54FF0500383F31188BFF351
:1020E0006F8FBFF34F8F00F0C1FE28B14FF0E02398
:1020F0004FF08052C3F8042D002383F3118808BDEC
:102100004FF0E022002313619361054B1B680549E2
:10211000A1FB03139B09013B536107231361704724
:1021200000000020D34D62104FF0E023D3F8002DC3
:102130003D4B9A421CD04FF0E023D3F8002D3B4B8F
:102140009A421ED030B583B0394B1A78D2B2019280
:10215000FF221A701B78DBB28DF803309DF8033034
:1021600003F05003334A1370334B07221A601BE00D
:102170004FF0500383F31188BFF36F8FBFF34F8F7E
:10218000FEE74FF0500383F31188BFF36F8FBFF367
:102190004F8FFEE7284A1368013B13609DF8033018
:1021A0005B00DBB28DF803309DF8033013F0800F35
:1021B000F0D1214B1B68032B08D04FF0500383F361
:1021C0001188BFF36F8FBFF34F8FFEE71B021A4AD0
:1021D000136003F4E0631360019BDBB2144A1370D5
:1021E0004FF0E024D4F8203D43F47003C4F8203DC0
:1021F000D4F8203D43F07043C4F8203DFFF780FF42
:1022000000250E4B1D60FFF7C1FED4F8343F43F0AC
:102210004043C4F8343FFFF7A5FE00F055FFFFF739
:1022200081FE284603B030BD71C20F4170C20F411C
:1022300000E400E0D80F0020DC0F00200C0000209C
:10224000124A12F0070F1ED0D11D21F00701C1F56F
:10225000F04313440A460E480260002141601344D3
:10226000083B23F007030B48036059601960991A73
:1022700051601360084B1960084B1960084B4FF010
:1022800000421A6070474FF4F043E4E7E40F002087
:10229000F0870020E00F0020EC870020E887002076
:1022A000E4870020164B1A461B688342FBD3516813
:1022B00002EB010C844509D0416800EB010C634539
:1022C00009D00360904219D0106070474068014403
:1022D00051601046F0E710B40A4C2468A3420BD0BA
:1022E0005B681944416013681B680360904200D02A
:1022F00010605DF8044B70470460F7E7704700BF5B
:10230000F0870020E00F002070B5054600F0A6FD24
:10231000344B1B68A3B1344B1B681D424AD135B105
:10232000083515F0070F02D025F007050835002DF8
:1023300042D02E4B1B68AB424DD32D4A146804E0AB
:10234000FFF77EFFE7E722461C466368AB4202D2F6
:102350002368002BF7D1234B1B68A3423DD016689E
:1023600008362368136063685B1B102B10D9601953
:1023700010F0070F08D04FF0500383F31188BFF31C
:102380006F8FBFF34F8FFEE743606560FFF78AFFF3
:10239000626816490B689B1A0B60164909688B42E4
:1023A00001D214490B60104B1B6813436360002378
:1023B000236002E0002600E0002600F0E3FD16F0B6
:1023C000070F0CD04FF0500383F31188BFF36F8FCA
:1023D000BFF34F8FFEE70026EFE70026EDE730461C
:1023E00070BD00BFE00F0020E4870020E8870020D8
:1023F000F0870020EC87002080B338B50446A0F1B8
:10240000080550F8043C164A1268134208D14FF0F0
:10241000500383F31188BFF36F8FBFF34F8FFEE735
:1024200050F8081C41B14FF0500383F31188BFF3FB
:102430006F8FBFF34F8FFEE723EA020340F8043C9F
:1024400000F00CFD54F8041C064A13680B4413609A
:102450002846FFF727FF00F095FD38BD704700BF05
:10246000E4870020E887002010B50446FFF7C2FD8E
:10247000A26BE36B9A4204D00024FFF7DDFD2046F7
:1024800010BD0124F9E710B50446FFF7B3FDA36BB7
:1024900023B90124FFF7D0FD204610BD0024F9E741
:1024A00070B504461546866B026C5AB903681BB1B9
:1024B00000200136A66370BD406800F019FF0023BC
:1024C0006360F6E76DB98068FDF782FE226CA36851
:1024D0001344A3606268934219D32368A36028461B
:1024E000E7E7C068FDF774FE226C5142E3689B1A6F
:1024F000E3602268934202D263680B44E360022DDA
:1025000001D00020D5E726B1013E0020D1E72846C2
:10251000CFE70020CDE70346026C6AB110B508464C
:10252000D9681144D9605C68A14201D31968D960A7
:10253000D968FDF74DFE10BD704738B50546FFF769
:1025400059FD95F8454064B201E0013C64B2002CAD
:102550000ADD6B6A43B105F1240000F01FFE00287C
:10256000F3D000F0AFFEF0E7FF2385F84530FFF72A
:1025700063FDFFF73FFD95F8444064B201E0013C84
:1025800064B2002C0ADD2B6943B105F1100000F0A4
:1025900005FE0028F3D000F095FEF0E7FF2385F854
:1025A0004430FFF749FD38BD38B5E0B10D4604466B
:1025B000FFF720FD2368E26B216C01FB02306060B5
:1025C0000020A063A360013A02FB0133E360FF2314
:1025D00084F8443084F84530FDB9236963B9FFF7C6
:1025E0002BFD012038BD4FF0500383F31188BFF35A
:1025F0006F8FBFF34F8FFEE704F1100000F0CEFDA8
:102600000028ECD04FF0E0234FF08052C3F8042DA7
:10261000BFF34F8FBFF36F8FE1E704F11000FFF7B7
:102620003CFC04F12400FFF738FCD8E710B5034662
:1026300002980C4631B90060C36304640121FFF7BE
:10264000B3FF10BD0260F7E740B94FF0500383F3CA
:102650001188BFF36F8FBFF34F8FFEE7F0B583B0E4
:102660000C4615460746A1B101FB00F04830FFF7C4
:102670004BFE064650B1002380F8463000902B46B2
:1026800000F1480221463846FFF7D0FF304603B03C
:10269000F0BD0846EAE7F0B585B0019288B10F4673
:1026A0001D460446B1B1022D20D1E36B012B1DD094
:1026B0004FF0500383F31188BFF36F8FBFF34F8F39
:1026C000FEE74FF0500383F31188BFF36F8FBFF322
:1026D0004F8FFEE7036C002BE5D04FF0500383F3E0
:1026E0001188BFF36F8FBFF34F8FFEE700F0F0FD4F
:1026F000064658B9019B002B48D04FF0500383F396
:102700001188BFF36F8FBFF34F8FFEE700263DE0C8
:102710002A4639462046FFF7C3FE636A7BB948B1B3
:102720004FF0E0234FF08052C3F8042DBFF34F8FDA
:10273000BFF36F8FFFF780FC012005B0F0BD04F1FF
:10274000240000F02BFD0028F4D04FF0E0234FF0E0
:102750008052C3F8042DBFF34F8FBFF36F8FE9E7AB
:10276000FFF76AFC0020E8E702A800F05DFD012603
:1027700019E0002384F8443021E0002384F8453038
:1027800023E02046FFF7D9FE00F0FCFBFFF732FC08
:10279000A26BE36B9A42BBD3022DB9D0019B002BF5
:1027A000DED0002EE0D0FFF747FC00F057FBFFF72C
:1027B00021FC94F8442052B2B2F1FF3FD9D094F8F2
:1027C000452052B2B2F1FF3FD7D0FFF735FC01A947
:1027D00002A800F035FDD8B92046FFF745FE0028D5
:1027E000CFD0019904F1100000F0C0FC2046FFF7A3
:1027F000A4FE00F0C7FB0028C8D14FF0E0234FF043
:102800008052C3F8042DBFF34F8FBFF36F8FBDE726
:102810002046FFF792FE00F0B5FB00208DE7F0B5F3
:1028200085B0019290B10F460446C1B100F050FD51
:10283000064600BB019B002B5ED04FF0500383F394
:102840001188BFF36F8FBFF34F8FFEE74FF0500338
:1028500083F31188BFF36F8FBFF34F8FFEE7036CD5
:10286000002BE3D04FF0500383F31188BFF36F8F39
:10287000BFF34F8FFEE700263EE039462046FFF7C4
:102880004AFE013DA563236923B9FFF7D5FB01206B
:1028900005B0F0BD04F1100000F080FC0028F4D079
:1028A0004FF0E0234FF08052C3F8042DBFF34F8F59
:1028B000BFF36F8FE9E7FFF7BFFB0020E8E702A84F
:1028C00000F0B2FC012621E0002384F8443029E026
:1028D000002384F845302BE02046FFF72EFE00F061
:1028E00051FB09E02046FFF728FE00F04BFB204695
:1028F000FFF7C9FD00283FD1FFF77CFBA56B002D3A
:10290000BBD1019B002BD6D0002ED8D0FFF794FB73
:1029100000F0A4FAFFF76EFB94F844305BB2B3F119
:10292000FF3FD1D094F845305BB2B3F1FF3FCFD039
:10293000FFF782FB01A902A800F082FC0028D1D198
:102940002046FFF7A0FD0028C6D0019904F124001D
:1029500000F00CFC2046FFF7F0FD00F013FB002810
:10296000CAD14FF0E0234FF08052C3F8042DBFF3DB
:102970004F8FBFF36F8FBFE7002089E7084B1B68BD
:102980001B6823B9074B4FF0FF321A607047044BA6
:102990001B68DB68DB685A68024B1A60704700BF2F
:1029A000FC870020D48800202DE9F0470746984690
:1029B000089DDDF824900A9C266B02F18042013AC2
:1029C00006EB820626F007064FF0000CBCF10F0F55
:1029D0000BD811F80C2004EB0C0383F8342011F809
:1029E0000C3013B10CF1010CF0E7002384F84330F4
:1029F000062D00D90625E56265644FF0000AC4F88B
:102A000048A0201DFFF754FA04F11800FFF750FA10
:102A10002461C5F10705A5616462C4F878A484F84F
:102A20007CA44FF48562514604F1500000F0E4FCB0
:102A300004F54F73636504F56973A36504F20C43F1
:102A4000E36501220023C4E93E2343F20E33A4F8D8
:102A500000314AF6CD33A4F8023141F23423A4F810
:102A600004314EF26D63A4F806314DF6EC63A4F820
:102A700008310523A4F80A310B23A4F80C3142468F
:102A800039463046FFF78CFA2060B9F1000F01D0CB
:102A9000C9F80040BDE8F08738B5002407E004EB32
:102AA000840293000E481844FFF7F7F90134062C0E
:102AB000F5D90C4D2846FFF7F0F90B4C2046FFF7EF
:102AC000ECF90A48FFF7E9F90948FFF7E6F9094880
:102AD000FFF7E3F9084B1D60084B1C6038BD00BFD1
:102AE00004880020A8880020BC880020DC88002002
:102AF00008890020F4880020FC870020008800203E
:102B000010B50446FFF776FA214A136801331360C3
:102B1000204B1B685BB1204B1B686BB91D4B1B68BE
:102B2000DA6AE36A9A4207D81A4B1C6004E0194B30
:102B30001C601368012B28D0184A136801331360F6
:102B4000E06A01238340164A11680B43136000EBCF
:102B50008000211D134B03EB8000FFF7ACF9FFF75A
:102B60006BFA0D4B1B687BB10A4B1B68DA6AE36A90
:102B70009A4209D24FF0E0234FF08052C3F8042D5F
:102B8000BFF34F8FBFF36F8F10BDFFF785FFD3E704
:102B900090880020F8870020F0880020A08800207E
:102BA000A48800200488002010B50446503000F0AE
:102BB00099FC94F87D3463B1012B11D0022B0ED017
:102BC0004FF0500383F31188BFF36F8FBFF34F8F24
:102BD000FEE7206BFFF710FC2046FFF70DFC10BD51
:102BE0002046FFF709FCFAE70F4B1B68D3B110B57D
:102BF000FFF700FA0D4BDB68DC68201DFFF77FF95B
:102C00000B4A1368013B1360074A1368013B1360CA
:102C1000FFF712FA2046FFF7C7FF034B1B68002B94
:102C2000E6D110BD704700BF9488002008890020BD
:102C30009088002008B5FFF7D7FF074B1B68012BD2
:102C4000F9D94FF0E0234FF08052C3F8042DBFF3C1
:102C50004F8FBFF36F8FEEE70488002070B50446F6
:102C60000D461D4B1E681D4B18680430FFF747F9D1
:102C700050B91A4B1B68DA6A012303FA02F21849A9
:102C80000B6823EA02030B60B4F1FF3F0DD034441C
:102C9000124B1B685C60A64210D9124B18680F4B90
:102CA00019680431FFF712F970BD002DEFD00B4BFE
:102CB000196804310C48FFF7FEF8F5E70B4B18686C
:102CC000064B19680431FFF701F9094B1B68A34251
:102CD000EAD9074B1C60E7E71C890020F887002031
:102CE000A488002000880020F4880020FC870020B1
:102CF000D488002030B587B00B9C8CB10C9DC5B139
:102D00004FF490650495049DB5F5906F1AD04FF07F
:102D1000500383F31188BFF36F8FBFF34F8FFEE72C
:102D20004FF0500383F31188BFF36F8FBFF34F8FC2
:102D3000FEE74FF0500383F31188BFF36F8FBFF3AB
:102D40004F8FFEE70C9D2C63022485F87D44002400
:102D50000394029505AC01940A9C0094FFF724FEAD
:102D60000C98FFF7CDFE059807B030BD2DE9F04374
:102D700085B00746884614461E469000FFF7C4FA01
:102D800008B381464FF49060FFF7BEFA0546B0B134
:102D9000C0F83090E5B1002385F87D3403930295A7
:102DA0000D9B01930C9B00933346224641463846C7
:102DB000FFF7FAFD2846FFF7A3FE012005E048468D
:102DC000FFF71AFBE6E74FF0FF3005B0BDE8F083F0
:102DD0004FF0FF30F9E7000010B588B000240594EB
:102DE000069407AA06A905A8FDF78CFA059B02938D
:102DF000069B019300942346079A10491048FFF759
:102E000079FF104B1860B8B14FF0500383F311886D
:102E1000BFF36F8FBFF34F8F0B4B1B6850330B4AC1
:102E200013600B4B4FF0FF321A600A4B01221A60FD
:102E3000094B1C60FFF778F908B010BDE8390008AD
:102E4000352C0008D0880020F887002010000020D2
:102E5000D4880020F08800201C890020024A1368D2
:102E600001331360704700BF9C880020F8B53A4BCF
:102E70001B68002B64D1394B1D6801351D60C5B935
:102E8000374B1B681B6843B14FF0500383F3118825
:102E9000BFF36F8FBFF34F8FFEE7314A1168314B9D
:102EA000186810601960304A136801331360FFF727
:102EB00065FD2E4B1B68AB4238D900272C4B1B6895
:102EC000DB6A03EB83039A002A4B9B58012B3CD906
:102ED00001273AE00127224B1B681B6843B3204BB4
:102EE0001B68DB68DC6863689D4226D3261D30467C
:102EF000FFF705F8A36A1BB104F11800FEF7FFFF06
:102F0000E36A01229A401C49086802430A6003EB05
:102F100083039A00314617481044FEF7CCFFE26A5B
:102F2000134B1B68DB6A9A42D4D2D4E70027D2E75E
:102F30000E4B4FF0FF321A60C0E70C4A1360BDE73A
:102F40000E4A13680133136000270D4B1B6803B151
:102F500001273846F8BD00BF9C8800201C8900204E
:102F6000FC87002000880020D8880020D48800201A
:102F7000F887002004880020A4880020988800207A
:102F80002089002038B5354B1B6843B94FF05003FA
:102F900083F31188BFF36F8FBFF34F8FFEE7FFF707
:102FA00029F82E4B1A68013A1A601B68002B4FD182
:102FB0002B4B1B680BB900244BE00024294B1B68EA
:102FC0001BB3284BDB68DC6804F11800FEF797FFA1
:102FD000251D2846FEF793FFE06A01238340224A1D
:102FE00011680B43136000EB800029461F4B03EB75
:102FF0008000FEF760FFE26A1D4B1B68DB6A9A42A5
:10300000DCD31C4B01221A60D8E70CB1FFF7B6FCE9
:10301000194B1C6884B9174B1C68D4B14FF0E023DE
:103020004FF08052C3F8042DBFF34F8FBFF36F8F63
:1030300001240EE0013C07D0FFF718FF0028F9D06B
:103040000C4B01221A60F5E70B4B00221A60E2E7F5
:103050000024FEF7F1FF204638BD00BF9C88002009
:1030600090880020DC880020A488002004880020AC
:10307000F8870020208900209888002010B5A8B18A
:103080000446104B1B6843B14FF0500383F3118883
:10309000BFF36F8FBFF34F8FFEE7FFF7DFFE002117
:1030A0002046FFF7DBFDFFF76DFF48B94FF0E02347
:1030B0004FF08052C3F8042DBFF34F8FBFF36F8FD3
:1030C00010BD00BF9C880020224B1B681BB1224B07
:1030D00001221A607047204B00221A601F4B1B68A8
:1030E000B3FA83F3DBB2C3F11F0303EB83018A005E
:1030F0001B498A5842B94FF0500383F31188BFF33C
:103100006F8FBFF34F8FFEE7154903EB83008200FB
:103110000A4450684068506003EB830C4FEA8C020D
:103120000832114488420DD003EB83039A000C4B04
:1031300013445B68DA680B4B1A601B6850330A4A09
:1031400013607047406862469100054A0A44506027
:10315000EAE700BF9C88002020890020A488002086
:1031600004880020F88700201000002058B110B516
:103170000C46094A11681831FEF7A8FE01212046C5
:10318000FFF76CFD10BD4FF0500383F31188BFF3C0
:103190006F8FBFF34F8FFEE7F887002038B5C36805
:1031A000DC6824B304F118052846FEF7A8FE184B86
:1031B0001B682BBB251D2846FEF7A1FEE06A0123F4
:1031C0008340144A11680B43136000EB80002946CA
:1031D000114B03EB8000FEF76EFEE26A0F4B1B689B
:1031E000DB6A9A4211D901200D4B186038BD4FF0AF
:1031F000500383F31188BFF36F8FBFF34F8FFEE748
:1032000029460848FEF757FEE7E70020EEE700BF33
:103210009C880020A488002004880020F8870020D3
:1032200020890020DC880020034B1B680360034BCF
:103230001B684360704700BFD88800201C890020AD
:10324000F8B5C8B10C460546F9B1FEF7D3FE1B4BE5
:1032500019686B68C81A2268B2F1FF3F26D0184E71
:1032600036682F68B74201D08B4224D9824215D8E4
:103270000023236001241AE04FF0500383F31188E8
:10328000BFF36F8FBFF34F8FFEE74FF0500383F311
:103290001188BFF36F8FBFF34F8FFEE75B1A1344A4
:1032A00023602846FFF7C0FF002400E00024FEF75B
:1032B000C3FE2046F8BD0124F9E700BF1C890020A9
:1032C000D8880020014B01221A6070472089002015
:1032D000054B1B6833B1054B1B680BB100207047D1
:1032E0000220704701207047F08800209C88002051
:1032F00000284CD038B50446274B1B68834208D0C1
:103300004FF0500383F31188BFF36F8FBFF34F8FDC
:10331000FEE7836C43B94FF0500383F31188BFF38A
:103320006F8FBFF34F8FFEE7013B8364C16A426C2E
:1033300091422ED00BB1002038BD051D2846FEF766
:10334000DEFD70B9E26A02EB82039B001349CB58A1
:103350003BB9012303FA02F211490B6823EA020385
:103360000B60606CE062C0F10703A361012404FA02
:1033700000F30B4A11680B43136000EB80002946F1
:10338000064B03EB8000FEF796FD2046D4E70020B5
:1033900070470020D0E700BFF88700200488002095
:1033A000A4880020014B1868704700BF100000205F
:1033B00070B50D4E0D4D761BB61006D0002455F895
:1033C000043B01349847A642F9D1094E094D761BBA
:1033D00000F0B4FAB61006D0002455F8043B0134CE
:1033E0009847A642F9D170BDF4390008F4390008B5
:1033F000FC390008F4390008830730B548D0541E62
:10340000002A3FD0CAB2034601E0013C3AD303F898
:10341000012B9D07F9D1032C2DD9CDB245EA052505
:103420000F2C45EA054536D9A4F1100222F00F0C05
:1034300003F1200EE6444FEA121C03F1100242E9A8
:10344000045542E9025510327245F8D10CF10102DF
:1034500014F00C0F03EB021204F00F0C13D0ACF1BC
:10346000040323F003030433134442F8045B934240
:10347000FBD10CF003042CB1CAB21C4403F8012B9D
:103480009C42FBD130BD64461346002CF4D1F9E7D1
:1034900003461446BFE71A46A446E0E72DE9F0418B
:1034A0000E680C460546BEB137688FB1D7F800806C
:1034B000B8F1000F08D0D8F8001009B1FFF7EEFFFF
:1034C0004146284600F0CCF83946284600F0C8F8B6
:1034D0003146284600F0C4F821462846BDE8F041B0
:1034E00000F0BEB8224B1B68834240D0C16C70B55F
:1034F000054681B100268C593CB1214624682846F6
:1035000000F0AEF8002CF8D1E96C0436802EF2D130
:10351000284600F0A5F8296C11B1284600F0A0F863
:10352000D5F8484154B105F5A676B44206D02146F7
:103530002468284600F094F8A642F8D1696D11B1CC
:10354000284600F08DF8AB6B83B1EB6B28469847AB
:10355000D5F8E04254B1216811B12846FFF79EFF2B
:1035600021462846BDE8704000F07AB870BD70472B
:1035700010000020024B13B1024800F005B870475C
:103580000000000095350008002301461A46184641
:1035900000F08EB938B5084B084D5B1B9C1007D066
:1035A000043B1D44013C55F804399847002CF9D1DF
:1035B000BDE8384000F0C8B9003A0008FC390008FE
:1035C000F8B5244F0C46064600F054F9BA68556821
:1035D000C4F57E630F3325F003052B4423F47F638A
:1035E00023F00F03A3F58054B4F5805F07DB0021BF
:1035F000304600F04BF9BB682B44984204D030466B
:1036000000F03EF90020F8BD6142304600F03EF97E
:1036100001300DD0104ABB682D1B45F001055D60DF
:10362000136830461B1B136000F02AF90120F8BD17
:103630000021304600F02AF9BA68831A0F2BDEDD2C
:1036400043F001035360054B03491B68C01A08602F
:10365000D5E700BF44040020308900204C0800203A
:10366000002961D0F8B50C46064600F003F954F87D
:10367000042C7B4FA4F1080522F0010105EB010C9D
:10368000B868DCF80430604523F0030300F08B8059
:10369000D207CCF8043032D454F8082CAD1A1144B7
:1036A000AA6807F1080082426AD00CEB0304D4F840
:1036B00004E0EC68D4601EF0010FA26000F0978077
:1036C00041F001036B60CCF80010B1F5007F35D2FA
:1036D0007A68CB08480901210133814011437960A0
:1036E00007EBC30257F83310083AC5E9021247F84E
:1036F0003350CD603046BDE8F84000F0C1B80CEB67
:1037000003025268D00710D4194407F10800DCF80E
:103710000830834273D0DCF80C20DA60936041F00B
:1037200001036B606950D0E7704741F00103B1F5C8
:10373000007F44F8043CCCF80010C9D3B1F5206FE9
:103740004FEA512348D28B0903F1390003F13802C3
:10375000C300F818FB580838984259D05A6822F02C
:1037600003028A4202D99B689842F7D1D868C5E91A
:1037700002308560DD603046BDE8F84000F080B87A
:103780000CEB03025268D20763D40B44DCE902124B
:10379000CA60916043F001026A603046EB50BDE8B8
:1037A000F84000F06DB80B44D10707D454F8082C4A
:1037B000AD1A1344D5E90212CA60916043F00102C8
:1037C0006A60284ABD6012689A4293D8264B3046F8
:1037D0001968FFF7F5FE8DE7142B0AD9542B1FD873
:1037E0000B0B03F16F0003F16E02C300B1E7194444
:1037F0008DE703F15C0003F15B02C300A9E741F030
:103800000103C7E90455C5E902006B60695071E71F
:1038100079689210012404FA02F20A437A60A6E75A
:10382000B3F5AA7F06D8CB0B03F1780003F177023A
:10383000C3008EE740F25452934206D88B0C03F13A
:103840007D0003F17C02C30083E74FF47E737E2288
:103850007FE741F001036B60CCF800104AE700BF3E
:10386000440400205008002058890020704700BF01
:10387000704700BF0148FFF7F9BF00BF2C89002047
:103880000148FFF7F5BF00BF2C89002038B5074D70
:103890000022044608462A60FCF73EFF431C00D085
:1038A00038BD2B68002BFBD0236038BD2489002055
:1038B0002DE9F047DFF880A00646DAF800009846C8
:1038C0000F469146FFF7D2FF1A4B1B68D3F84841C9
:1038D00024B365681F2D26DC5EB96B1C0235DAF84F
:1038E0000000636044F82570FFF7C2FF0020BDE8C8
:1038F000F08704EB85010123C1F88890D4F8882172
:10390000AB401A43022EC4F88821C1F80881E4D1E3
:10391000D4F88C211343C4F88C31DEE703F5A67488
:10392000C3F84841D5E7DAF80000FFF7A1FF4FF0F0
:10393000FF30DCE7F039000840040020F8B500BF94
:10394000F8BC08BC9E467047F8B500BFF8BC08BC80
:043950009E467047D8
:103954000001000200040008001000200040008064
:103964009C3900081D04000800000000000000004D
:10397400800000000000000000000000A8390008DA
:10398400A503000800000000000000008000000003
:10399400000000000000000064656661756C7454EA
:1039A40061736B007461736B3200000000000000EF
:1039B40000000000010203040607080900000000DB
:1039C4000102030402030405060708090A0B0C0D8F
:1039D4000E0F10100102030405060708090A0B0C58
:1039E4000D0E0F1049444C45000000001800002043
:0839F40075350008B50100085B
:0439FC00910100082D
:103A000000127A000100000010000000AAAAAAAA71
:103A10001800002000000000000000000403002047
:103A20006C030020D4030020000000000000000010
:103A30000000000000000000000000000000000086
:103A40000000000000000000000000000000000076
:103A50000000000000000000000000000000000066
:103A60000000000000000000000000000000000056
:103A70000000000000000000000000000000000046
:103A80000000000000000000000000000000000036
:103A90000000000000000000000000000000000026
:103AA0000000000000000000000000000000000016
:103AB0000000000000000000000000000000000006
:103AC00001000000000000000E33CDAB34126DE6A3
:103AD000ECDE05000B00000000000000000000000C
:103AE00000000000000000000000000000000000D6
:103AF00000000000000000000000000000000000C6
:103B000000000000000000000000000000000000B5
:103B100000000000000000000000000000000000A5
:103E40002889002000000000000000004404002039
:103E5000440400204C0400204C04002054040020A2
:103E6000540400205C0400205C0400206404002052
:103E7000640400206C0400206C0400207404002002
:103E8000740400207C0400207C04002084040020B2
:103E9000840400208C0400208C0400209404002062
:103EA000940400209C0400209C040020A404002012
:103EB000A4040020AC040020AC040020B4040020C2
:103EC000B4040020BC040020BC040020C404002072
:103ED000C4040020CC040020CC040020D404002022
:103EE000D4040020DC040020DC040020E4040020D2
:103EF000E4040020EC040020EC040020F404002082
:103F0000F4040020FC040020FC0400200405002030
:103F1000040500200C0500200C05002014050020DD
:103F2000140500201C0500201C050020240500208D
:103F3000240500202C0500202C050020340500203D
:103F4000340500203C0500203C05002044050020ED
:103F5000440500204C0500204C050020540500209D
:103F6000540500205C0500205C050020640500204D
:103F7000640500206C0500206C05002074050020FD
:103F8000740500207C0500207C05002084050020AD
:103F9000840500208C0500208C050020940500205D
:103FA000940500209C0500209C050020A40500200D
:103FB000A4050020AC050020AC050020B4050020BD
:103FC000B4050020BC050020BC050020C40500206D
:103FD000C4050020CC050020CC050020D40500201D
:103FE000D4050020DC050020DC050020E4050020CD
:103FF000E4050020EC050020EC050020F40500207D
:10400000F4050020FC050020FC050020040600202B
:10401000040600200C0600200C06002014060020D8
:10402000140600201C0600201C0600202406002088
:10403000240600202C0600202C0600203406002038
:10404000340600203C0600203C06002044060020E8
:10405000440600204C0600204C0600205406002098
:10406000540600205C0600205C0600206406002048
:10407000640600206C0600206C06002074060020F8
:10408000740600207C0600207C06002084060020A8
:10409000840600208C0600208C0600209406002058
:1040A000940600209C0600209C060020A406002008
:1040B000A4060020AC060020AC060020B4060020B8
:1040C000B4060020BC060020BC060020C406002068
:1040D000C4060020CC060020CC060020D406002018
:1040E000D4060020DC060020DC060020E4060020C8
:1040F000E4060020EC060020EC060020F406002078
:10410000F4060020FC060020FC0600200407002026
:10411000040700200C0700200C07002014070020D3
:10412000140700201C0700201C0700202407002083
:10413000240700202C0700202C0700203407002033
:10414000340700203C0700203C07002044070020E3
:10415000440700204C0700204C0700205407002093
:10416000540700205C0700205C0700206407002043
:10417000640700206C0700206C07002074070020F3
:10418000740700207C0700207C07002084070020A3
:10419000840700208C0700208C0700209407002053
:1041A000940700209C0700209C070020A407002003
:1041B000A4070020AC070020AC070020B4070020B3
:1041C000B4070020BC070020BC070020C407002063
:1041D000C4070020CC070020CC070020D407002013
:1041E000D4070020DC070020DC070020E4070020C3
:1041F000E4070020EC070020EC070020F407002073
:10420000F4070020FC070020FC0700200408002021
:10421000040800200C0800200C08002014080020CE
:10422000140800201C0800201C080020240800207E
:10423000240800202C0800202C080020340800202E
:10424000340800203C0800203C080020FFFFFFFF4E
:044250000000020068
:040000050800077573
:00000001FF
